:020000040800F2
:10000000000008245D2900089121000899210008BA
:10001000A1210008A9210008B1210008000000006A
:1000200000000000000000000000000021E80008BF
:10003000B92100080000000071EA000811C20008A0
:10004000AD290008AD290008AD290008AD29000838
:10005000AD290008AD290008AD290008AD29000828
:10006000AD290008AD290008AD290008C921000804
:10007000DD210008AD290008AD290008AD290008E0
:10008000AD290008AD290008AD290008AD290008F8
:10009000AD290008AD290008AD290008AD290008E8
:1000A000AD290008AD290008AD290008AD290008D8
:1000B000AD290008AD290008AD290008AD290008C8
:1000C000AD290008AD290008AD290008AD290008B8
:1000D000AD290008F1210008AD290008052200081B
:1000E000AD290008AD29000800000000AD29000876
:1000F000AD290008AD290008AD290008AD29000888
:10010000AD290008AD290008AD290008AD29000877
:10011000AD290008AD290008AD2900081922000802
:10012000AD290008AD290008AD290008AD29000857
:10013000AD290008AD290008AD290008AD29000847
:1001400000000000000000000000000000000000AF
:10015000AD290008AD290008AD290008AD29000827
:10016000AD290008AD290008AD290008AD29000817
:10017000AD290008AD290008AD29000800000000E5
:10018000AD290008AD290008AD290008AD290008F7
:10019000AD290008AD290008AD290008AD290008E7
:1001A000AD290008AD290008AD290008AD290008D7
:1001B000AD290008AD290008AD290008AD290008C7
:1001C000AD290008AD290008AD290008AD290008B7
:1001D000AD290008AD290008AD290008AD290008A7
:1001E000AD290008AD290008AD290008AD29000897
:1001F000AD290008AD290008AD290008AD29000887
:10020000AD290008AD290008AD290008AD29000876
:10021000AD290008AD290008AD290008AD29000866
:10022000AD290008AD290008AD2900080000000034
:10023000AD290008AD29000800000000AD29000824
:10024000AD290008AD290008AD290008AD29000836
:10025000AD290008AD290008AD290008AD29000826
:10026000AD290008AD290008AD290008AD29000816
:10027000AD290008AD290008AD29000800000000E4
:10028000AD290008AD290008AD29000800000000D4
:0802900000000000AD29000888
:1002A00010B5054C237833B9044B13B10448AFF3B0
:1002B00000800123237010BD780500240000000099
:1002C00070F0010808B5034B1BB103490348AFF3B5
:1002D000008008BD000000007C05002470F00108CB
:1002E00010F8012B11F8013B012A28BF9A42F7D0E0
:1002F000D01A70470000000000000000000000005D
:1003000001F0FF01102A2BDB10F0070F08D010F8C6
:10031000013B013A8B422DD010F0070F42B3F6D1CA
:10032000F0B441EA012141EA014122F007047FF0E3
:1003300000070023F0E80256083C85EA010586EA3A
:10034000010685FA47F5A3FA87F586FA47F6A5FA76
:1003500087F68EB9EED1F0BC01F0FF0102F0070282
:1003600032B110F8013B013A83EA010313B1F8D12D
:100370000020704701387047002D06BF354603380E
:10038000073815F0010F07D1013015F4807F02BF47
:10039000013015F4C03F0130F0BC0138704700BF98
:1003A000034613F8012B002AFBD1181A01387047B5
:1003B0007BB972B90029BEBF00204FF0004106E0B2
:1003C00008BF00281CBF6FF000414FF0FF3000F065
:1003D000D3B9ADF1080C6DE904CE002909DB002B7F
:1003E0001ADB00F04DF8DDF804E0DDE9022304B08B
:1003F0007047404261EB4101002B1BDB00F040F8ED
:10040000DDF804E0DDE9022304B0404261EB410184
:10041000524263EB43037047524263EB430300F0E5
:100420002FF8DDF804E0DDE9022304B0404261EB7F
:1004300041017047524263EB430300F021F8DDF8BD
:1004400004E0DDE9022304B0524263EB430370474A
:1004500053B94AB9002908BF00281CBF4FF0FF312B
:100460004FF0FF3000F088B9ADF1080C6DE904CE13
:1004700000F006F8DDF804E0DDE9022304B070477F
:100480002DE9F047089D0F4604468C46002B48D1C5
:100490008A42164661D9B2FA82F34BB1C3F1200207
:1004A00001FA03FC20FA02F29E4042EA0C0C9C4046
:1004B0004FEA164EB7B2BCFBFEF1220C0EFB11CC7C
:1004C00042EA0C4201FB07F0904209D9B21801F14F
:1004D000FF3C80F0EE80904240F2EB8002393244E3
:1004E000121AA4B2B2FBFEF00EFB102244EA024440
:1004F00000FB07F7A74209D9341900F1FF3280F059
:10050000DA80A74240F2D7803444023840EA014002
:10051000E41B00211DB1DC400023C5E90043BDE818
:10052000F0878B4206D90DB1C5E9000100210846CC
:10053000BDE8F087B3FA83F1002948D1BB4202D36A
:10054000824200F20781841A67EB0302012094467D
:10055000002DE4D0C5E9004CE1E7002A00F09280CC
:10056000B2FA82F3002B40F0A8808A1A4FEA164EA6
:100570001FFA86FC0121200CB2FBFEF70EFB1722AE
:1005800040EA02420CFB07F0904207D9B21807F18B
:10059000FF3802D2904200F2E2804746121AA4B21B
:1005A000B2FBFEF00EFB102244EA02440CFB00FCFE
:1005B000A44507D9341900F1FF3202D2A44500F254
:1005C000CB801046A4EB0C0440EA0740A2E7C1F13F
:1005D00020068B4022FA06FC4CEA030C07FA01F4D1
:1005E00020FA06F3F7404FEA1C49234300FA01F8CA
:1005F0001FFA8CFEB7FBF9F01C0C09FB107744EADC
:10060000074400FB0EF7A74202FA01F20AD91CEBDD
:10061000040400F1FF3A80F09B80A74240F29880EA
:1006200002386444E41B9FB2B4FBF9F309FB1344A2
:1006300047EA044403FB0EFEA64509D91CEB04045B
:1006400003F1FF3780F08280A6457FD9023B6444E6
:1006500043EA0040A4EB0E04A0FB02E7BC42734651
:10066000B94663D360D05DB1B8EB030264EB090413
:1006700004FA06F622FA01F31E43CC40C5E90064F1
:1006800000214CE76208480842EAC1710B0C43EABA
:1006900000438AB242EA0342B3FBF6F1E407B446F0
:1006A0003746B6461F23B0FBF6F0D21B41EA0041A5
:1006B00061E7614614E7104628E7C3F1200120FAFC
:1006C00001F29E4027FA01F19F403A434FEA164E4D
:1006D0001FFA86FCB1FBFEF70EFB1710110C41EA66
:1006E000004107FB0CF8884504FA03F43AD9711865
:1006F00007F1FF3001D288451FD8A1EB0801B1FBFB
:10070000FEF808FB0CF70EFB181192B242EA014208
:10071000BA422FD2B21808F1FF31C6D2BA42C4D2BF
:10072000A8F102013244C0E7F0459CD2BEEB0203BF
:1007300067EB0C070138B94695E7A6EB080841447A
:10074000B81EB1FBFEF808FB0CF7DCE73B467FE781
:10075000504667E70846FBE63444023832E7023F7A
:1007600032441BE7A1EB08013846B1FBFEF808FB59
:100770000CF7C8E7414698E7704700BF80B500AF67
:10078000094B1B780133DAB2074B1A70064B1B7802
:10079000142B07D9044B00221A704FF40051034860
:1007A00005F0F3FA00BF80BD94050024000802584C
:1007B00080B582B000AF0DF023F803467B60064899
:1007C0001CF030FCFFF7DAFF3B1D0A2118460CF045
:1007D00045FE00BFF6E700BF88F0010880B485B091
:1007E00000AF03460A46FB711346BB804FF0FF3350
:1007F000FB60FB79012B08D0FB79022B05D0FB793C
:10080000032B02D0FB79042B10D1B7F90430B43B91
:1008100040F6980202FB03F31B4A82FB03121A44C0
:10082000D211DB179B1A03F56173FB60FB79052B73
:100830000FD1B7F9043040F6F84202FB03F3134A34
:1008400082FB03121A441212DB17D31A03F5BE738C
:10085000FB60FB79062B0FD1B7F9043040F6980204
:1008600002FB03F3084A82FB03121A44D211DB177E
:10087000D31A03F56173FB60FB6818461437BD4655
:100880005DF8047B704700BFB7600BB649D6B9F27C
:1008900080B485B000AF03460A46FB711346BB80A7
:1008A0004FF0FF33FB60B7F90430002B02DAFB682E
:1008B0001BB25EE0FB79012B08D0FB79022B05D03F
:1008C000FB79032B02D0FB79042B18D1B7F9043044
:1008D000A3F5617307EE903AB8EEE76B9FED285BE6
:1008E00086EE057B9FED286B27EE067B9FED286B40
:1008F00037EE067BFDEEC77B17EE903AFB60FB7987
:10090000052B18D1B7F90430A3F5BE7307EE903A62
:10091000B8EEE76B9FED205B86EE057B9FED206BCD
:1009200027EE067BB6EE006B37EE067BFDEEC77B4F
:1009300017EE903AFB60FB79062B18D1B7F904301B
:10094000A3F5617307EE903AB8EEE76B9FED0C5B91
:1009500086EE057B9FED146B27EE067BB6EE006BF3
:1009600037EE067BFDEEC77B17EE903AFB60FB6827
:100970001BB218461437BD465DF8047B704700BFB4
:10098000000000000030A14000000000008066C0B0
:1009900000000000009066400000000000F0A94048
:1009A0000000000000E07040000000000080664091
:1009B00090B484B000AF0446084611461A46234658
:1009C000FB800346BB800B467B8013463B801D4A61
:1009D000FB8813801B4ABB8853801A4A7B8893800C
:1009E000184A3B88D380174A3B8B1381154ABB8B2F
:1009F00053810023FB601CE0124AFB6832F813307D
:100A0000B3F57A6F06D90F4AFB684FF4FA6122F802
:100A100013100BE00B4AFB6832F813305F2B05D83C
:100A2000084AFB684FF4FA6122F81310FB6801339F
:100A3000FB60FB68052BDFDD00BF00BF1037BD4644
:100A400090BC70470000002480B596B000AF03460C
:100A5000FB80FF2387F85530FF2387F85430FE23AF
:100A600087F85330222387F85230832387F8513098
:100A70002A2387F85030042387F84F30864A07F13D
:100A8000440392E8030018600433198007F13C0323
:100A900000221A609A8007F1340300221A609A80BB
:100AA000002387F85730FB881B0A9BB287F84E302B
:100AB000FB8887F84D30002387F8563041E097F8DF
:100AC0005630764A32F813301B0A9AB297F85630ED
:100AD000D2B258333B4403F81C2C97F856306F4A77
:100AE00032F8132097F85630D2B258333B4403F80B
:100AF000242C97F8563058333B4413F8142C97F8AD
:100B000057301344DAB297F8563058333B4413F851
:100B10001C3C1344DAB297F8563058333B4413F870
:100B2000243C1344DAB297F84E301344DAB297F803
:100B30004D30134487F8573097F85630013387F813
:100B4000563097F85630052BB9D997F8532097F8B7
:100B500052301344DAB297F851301344DAB297F8AE
:100B600050301344DAB297F84F301344DAB297F8A2
:100B700057301344DBB2DB4387F84C3097F85530DD
:100B80003B7397F854307B7397F85330BB7397F8E7
:100B90005230FB7397F851303B7497F850307B74A8
:100BA00097F84F30BB7497F84430FB7497F83C309B
:100BB0003B7597F834307B7597F84E30BB7597F8D6
:100BC0004D30FB7597F845303B7697F83D307B7696
:100BD00097F83530BB7697F84E30FB7697F84D3066
:100BE0003B7797F846307B7797F83E30BB7797F89E
:100BF0003630FB7797F84E3087F8203097F84D3035
:100C000087F8213097F8473087F8223097F83F303F
:100C100087F8233097F8373087F8243097F84E302C
:100C200087F8253097F84D3087F8263097F8483008
:100C300087F8273097F8403087F8283097F8383011
:100C400087F8293097F84E3087F82A3097F84D30DA
:100C500087F82B3097F8493087F82C3097F84130D7
:100C600087F82D3097F8393087F82E3097F84E30C6
:100C700087F82F3097F84D3087F8303097F84C30A0
:100C800087F8313007F10C032621184600F0B2F83E
:100C900000BF5837BD4680BD9CF00108000000240D
:100CA00080B584B000AF0346FB710B46BB80134692
:100CB0007B80B7F90420FB7911461846FFF78EFDBB
:100CC0000346FB81B7F90E30002B06DBF9897A88E1
:100CD000FB79184600F0A0F800E000BF1037BD46D1
:100CE00080BDB0B588B002AF0446084611461A462A
:100CF0002346FB800346BB800B467B8013463B802C
:100D0000B7F9063019460120FFF768FD0346FB825C
:100D1000B7F9043019460220FFF760FD0346BB8295
:100D2000B7F9023019460320FFF758FD03467B82CE
:100D3000B7F9003019460420FFF750FD03463B8207
:100D4000B7F9283019460520FFF748FD0346FB8117
:100D5000B7F92C3019460620FFF740FD0346BB814A
:100D6000F88AB98A7C8A3D8AFB89BA890192009304
:100D70002B462246FFF71CFE3B8E1846FFF764FE0B
:100D800000BF1837BD46B0BD80B582B000AF034686
:100D9000FB71FB79002B02D0FB79062B02D94FF0B7
:100DA000FF3304E0FB79184600F0B4F90346184617
:100DB0000837BD4680BD000080B500AF0C4808F084
:100DC00063FC0B4B1B6808221A62094B1B689A696B
:100DD000074B1B6842F008029A61054B1B689A6931
:100DE000034B1B6842F010029A6100BF80BD00BF38
:100DF0006808002480B582B000AF78600B467B8025
:100E00007A88FF237968034808F086F900BF08371D
:100E1000BD4680BD6808002480B588B000AF034699
:100E2000FB710B46BB8013467B80FF23FB77FF23C0
:100E3000BB77FB797B7707233B770323FB762A235A
:100E4000BB76BB88B3F57A6F03D94FF47A63BB8066
:100E500004E0BB885F2B01D86023BB80BB881B0AE2
:100E60009BB27B76BB883B767B881B0A9BB2FB756B
:100E70007B88BB757A7F3B7F1344DAB2FB7E1344D9
:100E8000DAB2BB7E1344DAB27B7E1344DAB23B7E25
:100E90001344DAB2FB7D1344DAB2BB7D1344DBB2F8
:100EA000DB437B75FB7F3B72BB7F7B727B7FBB72BF
:100EB0003B7FFB72FB7E3B73BB7E7B737B7EBB7396
:100EC0003B7EFB73FB7D3B74BB7D7B747B7DBB7486
:100ED00007F108030B211846FFF78CFF00BF2037EE
:100EE000BD4680BD80B586B000AF0346FB71FB797F
:100EF000002B14BF01230023DBB2FB75FF23BB755E
:100F0000FF237B75FE233B750423FB740323BB7413
:100F100028237B743A7DFB7C1344DAB2BB7C1344F8
:100F2000DAB27B7C1344DAB2FB7D1344DBB2DB43E1
:100F30003B74BB7D3B727B7D7B723B7DBB72FB7CDC
:100F4000FB72BB7C3B737B7C7B73FB7DBB733B7C0D
:100F5000FB7307F1080308211846FFF74BFF00BF9A
:100F60001837BD4680BD80B485B000AF78607B681F
:100F700002331A787B6803331B781344DAB27B6838
:100F800004331B781344DAB27B6805331B781344AF
:100F9000DAB27B6806331B781344DBB2DB43FB73A6
:100FA0007B6807331B78FA7B9A420CBF012300232E
:100FB000DBB218461437BD465DF8047B704700006D
:100FC00080B58AB000AF0346FB7107F10C03002225
:100FD0001A605A600023FB72002387F82730002331
:100FE00087F8263001F034FD03461933FB6181E0B8
:100FF00001F02EFD0246FB699B1ABB61BB69032B06
:1010000028BF03233B623B6A002B01D101233B62D3
:1010100007F10B013B6A01223D4808F00BF903463A
:10102000FB75FB7D032B60D0FB7D002B02D04FF0C6
:10103000FF3369E097F82730002B08D1FB7AFF2BAC
:1010400055D1FB7A3B73012387F827304FE097F89F
:101050002730012B15D1FB7AF52B08D1FB7A7B7356
:10106000022387F82730022387F8263042E0FB7AF4
:10107000FF2B02D1FB7A3B733CE0002387F827303B
:1010800038E097F826305A1C87F82620FA7A283359
:101090003B4403F81C2C97F82630072B29D9BB7B3F
:1010A000FA799A421AD107F10C031846FFF75BFF51
:1010B0000346002B12D07B7C1BB21B021AB2BB7CF6
:1010C0001BB213431BB2BB82BB8A5F2B06D9BB8A00
:1010D000B3F57A6F02D8B7F9143015E0002387F81A
:1010E0002730002387F8263004E000BF02E000BF6D
:1010F00000E000BF01F0ACFC0246FB699B1A002B2C
:101100003FF776AF4FF0FF3318462837BD4680BD16
:101110006808002480B588B000AF0346FB71FB79F6
:10112000002B02D0FB79FA2B02D94FF0FF334FE0AE
:10113000FF23BB77FF237B77FB793B770423FB7689
:101140000223BB7638237B7602233B763A7FFB7EF5
:101150001344DAB2BB7E1344DAB27B7E1344DAB2B4
:101160003B7E1344DBB2DB43FB75BB7F3B737B7F72
:101170007B733B7FBB73FB7EFB73BB7E3B747B7ED1
:101180007B743B7EBB74FB7DFB740023FB771AE012
:10119000FFF712FE07F10C0308211846FFF72AFE9D
:1011A0003B7F1846FFF70CFF0346BB82B7F91430AC
:1011B000002B02DBB7F914300AE002200BF01EF915
:1011C000FB7F0133FB77FB7F012BE1D94FF0FF332E
:1011D00018462037BD4680BDB0B500AF01F038FCE1
:1011E000034600221C46154622462B461046194649
:1011F000B0BD0000B0B588B000AFFFF7EDFFC7E9A4
:1012000004010023FB770DE04FF47A7014F07AF8B4
:10121000FB7F0133FB7714F04FF80346002B01D01E
:101220000523FB77FB7F042BEED914F045F803462A
:1012300083F00103DBB2002B12D04FF47A7014F06C
:1012400061F8F860FB68002B0AD0FA6886210F4825
:101250001BF080FE0E4B05221A6000200CF08AF86D
:1012600014F034F8C7E90001FFF7B6FFC7E904013D
:10127000D7E90001D7E90423841A61EB0305054B84
:10128000C3E9004500BF2037BD46B0BDA4F001084A
:1012900098050024C806002480B586B000AF3B1D29
:1012A000184612F0E9F80F4B7B600F4BBB600F4BF9
:1012B000FB600F4B3B613B1D184612F0EBF80346F9
:1012C00083F00103DBB2002B06D0AB2109481BF0F1
:1012D00041FE4FF0FF3300E0002318461837BD46AB
:1012E00080BD00BF45BD000889BD0008C1BD000824
:1012F0002DBE0008C8F0010880B588B004AF786042
:101300000023FB607B680293074B0193074B00931C
:10131000074B084A0849012012F00EFDF860FB68EF
:1013200018461037BD4680BD69BB00080DBB0008DC
:10133000EDBA0008C1BA0008D407002480B500AF98
:101340000A4B1B680133094A1360084B1B68642B66
:1013500008DD064B00221A600121642012F004FD12
:10136000034600E00023184680BD00BFE0060024CD
:1013700080B483B000AF03460A46FB711346BB80BE
:10138000FB79002B11D0FB79042B0ED8B7F9043070
:10139000002B05DBB7F90430B42B01DC012300E09E
:1013A000002303F00103DBB225E0FB79052B0FD10D
:1013B000B7F90430002B06DBB7F90430B3F5877FAB
:1013C00001DC012300E0002303F00103DBB212E0A3
:1013D000FB79062B0ED1B7F904301D2B05DDB7F9CB
:1013E0000430B42B01DC012300E0002303F00103EF
:1013F000DBB200E0002318460C37BD465DF8047BE5
:10140000704780B483B000AF0346FB80B7F9063065
:10141000632B01DC64230AE0B7F9063041F288321D
:10142000934202DD41F2883301E0B7F906301846F5
:101430000C37BD465DF8047B70470000B0B584B042
:1014400000AF78607B68FB60FB681A78FB68B3F9D3
:10145000023019461046FFF78BFF034683F0010365
:10146000DBB2002B0AD0FB681B781946FB68B3F986
:1014700002301A460B481BF06DFD10E0FB681C782B
:10148000FB68B3F90250FB68B3F904301846FFF764
:10149000B8FF03461A4629462046FFF701FC1037DD
:1014A000BD46B0BDF0F001082DE9F04788B004AFAB
:1014B00078607B68FB60FB68B3F900301946012057
:1014C000FFF756FF034683F00103DBB2002B40D148
:1014D000FB68B3F9023019460220FFF749FF0346C3
:1014E00083F00103DBB2002B33D1FB68B3F9043086
:1014F00019460320FFF73CFF034683F00103DBB2EC
:10150000002B26D1FB68B3F9063019460420FFF7FB
:101510002FFF034683F00103DBB2002B19D1FB68D8
:10152000B3F9083019460520FFF722FF034683F080
:101530000103DBB2002B0CD1FB68B3F90A3019466A
:101540000620FFF715FF034683F00103DBB2002BF3
:1015500003D015481BF066FD21E0FB68B3F900607D
:10156000FB68B3F90280FB68B3F90490FB68B3F938
:1015700006A0FB68B3F90840FB68B3F90A50FB68A2
:10158000B3F90C301846FFF73CFF03460293019570
:10159000009453464A4641463046FFF7A2FB1037B7
:1015A000BD46BDE8F08700BF14F1010880B584B0E6
:1015B00000AF78607B68FB60FB681B68002B03D181
:1015C0000020FFF78FFC06E0FB681B68012B02D1AF
:1015D0000120FFF787FC00BF1037BD4680BD00002B
:1015E000B0B5C0B002AF0023C7F8EC303D4C07F1F6
:1015F0008803184611F06CFF254607F188040FCCCC
:101600000FC523682B600FF0C5FF0346C7F8A43051
:10161000344B07F1A4046D4603F10C0292E8030079
:1016200085E803000ECB20460FF0B6FFC7F8E800B0
:10163000D7F8E830002B0CD0D7F8E82040F20F1193
:1016400029481BF087FC294B05221A6000200BF06B
:1016500091FE274B1B781A4607F1A4031146184642
:1016600010F098F8C7F8E400D7F8E430002B0CD05D
:10167000D7F8E4204FF488711B481BF06BFC1B4B20
:1016800005221A6000200BF075FE07F1A40318462E
:1016900010F088F8C7F8E00032200AF0AFFE144BD3
:1016A0001B78194613481BF055FCD7F8E000FFF7EC
:1016B00023FEFFF7F1FD4FF4FA700AF09FFE07F1E9
:1016C000A403084A0092002200210B480FF070FC8E
:1016D000C7F8EC00D7F8EC30002B11D007481BF00E
:1016E000A1FCE8E7EC050024A4F00108980500241B
:1016F0000C00002440F101080006002454F1010808
:1017000000BFBE481BF08EFCFFF774FDBC4C07F118
:101710008803184610F06EF8224607F1880393E814
:10172000030082E80300B74BB74AB849B4480FF04A
:1017300005FDC7F8DC00D7F8DC30002B0CD0D7F85B
:10174000DC2040F22311B2481BF004FCB14B05220F
:101750001A6000200BF00EFEAF4B1B780333DAB299
:10176000AD4B1A700DF050FC0246AC4BA449AC488E
:101770000FF0D0FDC7F8D800D7F8D830002B0CD028
:10178000D7F8D82040F22711A1481BF0E3FBA14B6A
:1017900005221A6000200BF0EDFD0DF01DFC024645
:1017A000A04B9749A0480FF0B5FDC7F8D400D7F873
:1017B000D430002B0CD0D7F8D42040F22D1194480F
:1017C0001BF0C8FB934B05221A6000200BF0D2FDE2
:1017D00014F054FB0246954B894995480FF09AFD49
:1017E000C7F8D000D7F8D030002B0CD0D7F8D020D5
:1017F00040F2331186481BF0ADFB864B05221A6080
:1018000000200BF0B7FD0DF0E7FB0246894B7C4949
:1018100089480FF045FDC7F8CC00D7F8CC30002B35
:101820000CD0D7F8CC2040F23B1179481BF092FB4A
:10183000784B05221A6000200BF09CFD0DF0CCFBCC
:1018400002467E4B6E497E480FF02AFDC7F8C8005D
:10185000D7F8C830002B0CD0D7F8C82040F241117F
:101860006B481BF077FB6B4B05221A6000200BF0D6
:1018700081FD744B4FF6FF721A80724B4FF6FF7268
:101880005A80704B4FF6FF729A806E4B4FF6FF7284
:10189000DA806C4B4FF6FF721A816A4B4FF6FF727B
:1018A0005A81684B00229A81674B4FF6FF721A806B
:1018B000654B4FF6FF725A80634B4FF6FF729A806A
:1018C000614B4FF6FF72DA805F4B4FF6FF721A8161
:1018D0005D4B4FF6FF725A815B4B00229A814E4B53
:1018E0001B78194659481BF035FB594C3B461846A6
:1018F0000FF072F820463B46882219461BF0A8FCE0
:10190000454B1B781A46534B3E4951480FF070F82F
:10191000C7F8C400D7F8C430002B0CD0D7F8C420C7
:1019200040F259113A481BF015FB3A4B05221A6058
:1019300000200BF01FFD00230093474B474A384916
:1019400043480FF0D1F8C7F8C000D7F8C030002BDB
:101950000CD0D7F8C0204FF4AE712D481BF0FAFA26
:101960002C4B05221A6000200BF004FD002300938D
:101970003B4B3C4A2C4936480FF0B6F8C7F8BC0040
:10198000D7F8BC30002B0CD0D7F8BC2040F2631144
:101990001F481BF0DFFA1F4B05221A6000200BF0D6
:1019A000E9FC00230093304B304A214928480FF0CE
:1019B0009BF8C7F8B800D7F8B830002B0CD0D7F890
:1019C000B8204FF4B57112481BF0C4FA114B052230
:1019D0001A6000200BF0CEFC01224FF48041244815
:1019E00004F0BAF90BF00CFF0346C7F8A03001F081
:1019F0002FF8C7F8F40001233CE000BF6CF10108A8
:101A0000C006002400060024D406002484F1010846
:101A1000A4F0010898050024D006002494F10108E0
:101A20009C050024A0F10108A8050024ACF10108E0
:101A3000BC050024B8F10108C4050024C8F1010860
:101A4000D8050024C8050024DC050024D4F10108D1
:101A500038060024EC0500243D140008A0050024ED
:101A6000A9140008AC050024AD150008C005002429
:101A70000008025887F8F330D7E07A4A4FF00003A5
:101A800079480FF05BFAFFF759FC0346002B40F052
:101A9000D28000F0DDFF0246D7F8F430D31A3B2B9A
:101AA00040F2BD8097F8F3301846FFF76DF9034612
:101AB000A7F8B630B7F9B630002B09DBB7F9B62076
:101AC00097F8F33011461846FEF7E2FE034601E0B0
:101AD0004FF0FF33A7F8B43097F8F330012B08D15B
:101AE000624AB7F8B4301380614AB7F8B630138051
:101AF0003FE097F8F330022B08D15C4AB7F8B430D6
:101B000053805B4AB7F8B630538032E097F8F33031
:101B1000032B08D1554AB7F8B4309380544AB7F82C
:101B2000B630938025E097F8F330042B08D14F4A64
:101B3000B7F8B430D3804E4AB7F8B630D38018E047
:101B400097F8F330052B08D1484AB7F8B430138121
:101B5000474AB7F8B63013810BE097F8F330062BFD
:101B600007D1424AB7F8B4305381414AB7F8B6308A
:101B7000538197F8F330013387F8F33097F8F33057
:101B8000062B48D9012387F8F33000F061FF0346A4
:101B90001BB2C3F30E03A7F8B230344AB7F8B23021
:101BA0009381334AB7F8B230938100222F493148EC
:101BB00010F06EF9C7F8AC00D7F8AC30002B0CD0A1
:101BC0002D4B1B6801332C4A1360D7F8AC204FF41F
:101BD000C9712A481BF0BEF902E0274B00221A60A7
:101BE00000222349264810F053F9C7F8A800D7F877
:101BF000A830002B0CD0204B1B6801331E4A136009
:101C0000D7F8A82040F293111C481BF0A3F902E07A
:101C1000194B00221A6000F01BFFC7F8F40007F10F
:101C2000A0030A2118460BF019FC134B1B68022B6A
:101C30007FF723AF00E000BF00224FF4804111483E
:101C400004F08AF810481BF0EDF910481BF0EAF98F
:101C50000A200BF083FC01F00AF800BFF837BD46FC
:101C6000B0BD00BF8096980038060024C805002447
:101C7000DC050024C405002498050024E8F10108CF
:101C8000D8050024000802580CF201081CF20108D3
:101C900080B582B000AF114BD3F8D8300F4A43F073
:101CA0000103C2F8D8300D4BD3F8D83003F001034C
:101CB0007B607B68002205210B2000F0B0FF0B2029
:101CC00000F0C7FF002205210C2000F0A8FF0C2027
:101CD00000F0BFFF00BF0837BD4680BD004402587A
:101CE00080B500AF084A002108480AF0F5FA03461B
:101CF000074A1360074A002107480AF0EDFA034635
:101D0000064A136000BF80BD28F30108211D0008AA
:101D1000E40600244CF30108371D0008E8060024FF
:101D200080B582B000AF7860FEF742FD4FF47A7064
:101D30000AF064FBFAE780B582B000AF78606420F7
:101D40000AF05CFBFFF74CFC4FF47A700AF056FB8C
:101D5000FAE7000080B58AB000AF07F11403002253
:101D60001A605A609A60DA601A61324BD3F8E03038
:101D7000304A43F00403C2F8E0302E4BD3F8E03091
:101D800003F004033B613B692A4BD3F8E030294A56
:101D900043F08003C2F8E030264BD3F8E03003F084
:101DA0008003FB60FB68234BD3F8E030214A43F00B
:101DB0001003C2F8E0301F4BD3F8E03003F01003FB
:101DC000BB60BB681B4BD3F8E0301A4A43F00803F2
:101DD000C2F8E030174BD3F8E03003F008037B6023
:101DE0007B68144BD3F8E030124A43F00103C2F889
:101DF000E030104BD3F8E03003F001033B603B6868
:101E000000224FF4C0410C4803F0A6FF4FF4C0433A
:101E10007B610123BB610023FB6100233B6207F16F
:101E200014031946044803F0E7FD00BF2837BD46F8
:101E300080BD00BF004402580008025880B500AFC2
:101E400000F0D8F800F0B4FD00F012F8FFF782FFC0
:101E5000FFF71EFF00F068FB00F0B4FB00F018FB7A
:101E60000AF0F0F9FFF73CFF0AF010FA00BFFDE7B7
:101E700080B59EB000AF07F12C034C22002118461C
:101E80001BF001F907F10C032022002118461BF07A
:101E9000FAF8022003F094FF0023BB60484BDB6A92
:101EA000474A23F00103D362454BDB6A03F0010389
:101EB000BB60444B9B69434A43F440439361414BAD
:101EC0009B6903F44043BB60BB6800BF3D4B9B690B
:101ED00003F40053B3F5005FF8D13B4BD3F8F43073
:101EE000394A43F00203C2F8F430374BD3F8F430E8
:101EF00003F002037B607B6800233B60314B9B69EE
:101F0000304A43F4404393612E4B9B6903F44043B2
:101F10003B602B4BDB6A2A4A43F00103D362284B18
:101F2000DB6A03F001033B603B6800BF254B9B6904
:101F300003F40053B3F5005FF8D10123FB624FF4C3
:101F400080333B6302233B6502237B650523BB652E
:101F5000C023FB6502233B6608237B660223BB6626
:101F60000823FB6600233B6700237B6707F12C03F4
:101F7000184603F05FFF0346002B01D000F078F80D
:101F80003F23FB6003233B6100237B610823BB618C
:101F90004023FB6140233B624FF480637B6240231C
:101FA000BB6207F10C030421184604F09DFB0346B5
:101FB000002B01D000F05CF800BF7837BD4680BD33
:101FC00000040058004802580044025880B584B00C
:101FD00000AFF860B9607A607B689AB2FF23B96895
:101FE000034807F099F87B6818461037BD4680BD56
:101FF0004007002480B584B000AF3B4600221A6041
:102000005A609A60DA6000F037FE01233B700023CB
:102010007B7000237B601F233B7287237B7200232E
:10202000BB720023FB7201233B7301237B730023EC
:10203000BB730023FB733B46184600F055FE04209B
:1020400000F032FE00BF1037BD4680BD80B582B0C3
:1020500000AF78607B681B68044A934201D100F0AE
:10206000E3FC00BF0837BD4680BD00BF0014004040
:1020700080B400AF72B600BF00BFFDE780B582B08C
:1020800000AF0C4BD3F8F4300A4A43F00203C2F815
:10209000F430084BD3F8F43003F002037B607B6824
:1020A00000220F216FF0010000F0B9FD00BF0837DA
:1020B000BD4680BD0044025880B590B000AF786046
:1020C0007B680F2B27D800227968372000F0A7FD06
:1020D000372000F0BEFD294A7B681360284BD3F8F7
:1020E000E830274A43F02003C2F8E830244BD3F805
:1020F000E83003F02003FB60FB6807F1100207F1F2
:1021000014031146184604F07BFEBB6ABB63BB6B2D
:10211000002B06D101E001232BE004F045FEF8631B
:1021200004E004F041FE03465B00FB63FB6B154AD1
:10213000A2FB03239B0C013B7B63134B134A1A60E6
:10214000114B40F2E732DA600F4A7B6B53600E4B63
:1021500000221A610C4B00229A600B4806F0BEFC6C
:102160000346002B04D1084806F01AFD034600E0A0
:10217000012318464037BD4680BD00BF1C00002427
:102180000044025883DE1B43EC0600240014004088
:1021900080B400AF00BFFDE780B400AF00BFFDE733
:1021A00080B400AF00BFFDE780B400AF00BFFDE723
:1021B00080B400AF00BFFDE780B400AF00BFBD46F4
:1021C0005DF8047B7047000080B500AF024802F064
:1021D000F5F800BF80BD00BFFC08002480B500AF4B
:1021E000024802F0EBF800BF80BD00BF7409002474
:1021F00080B500AF024807F0FDFA00BF80BD00BF08
:10220000D407002480B500AF024807F0F3FA00BFFE
:1022100080BD00BF6808002480B500AF024806F00A
:1022200037FD00BF80BD00BFEC06002480B400AFC6
:1022300001231846BD465DF8047B704780B582B027
:1022400000AF786039601AF06BFF034616221A60FF
:102250004FF0FF3318460837BD4680BD80B582B0C9
:1022600000AF78604FF0FF317868FFF7E7FF00BFFD
:10227000FDE780B586B000AFF860B9607A600023F2
:102280007B610AE0AFF300800146BB685A1CBA606C
:10229000CAB21A707B6901337B617A697B689A42A2
:1022A000F0DB7B6818461837BD4680BD80B483B02C
:1022B00000AF78604FF0FF3318460C37BD465DF82D
:1022C000047B704780B483B000AF786039603B68AE
:1022D0004FF400525A60002318460C37BD465DF893
:1022E000047B704780B483B000AF78600123184648
:1022F0000C37BD465DF8047B704780B485B000AFF5
:10230000F860B9607A60002318461437BD465DF85E
:10231000047B704780B586B000AF7860144A154BD7
:10232000D31A7B617B693B61134B1B68002B02D185
:10233000114B124A1A60104B1A687B6813443A69B1
:102340009A4207D21AF0ECFE03460C221A604FF0B4
:10235000FF3309E0084B1B68FB60074B1A687B687A
:102360001344054A1360FB6818461837BD4680BD04
:1023700000000824000400003C0700240801022497
:1023800080B400AF374BD3F88830364A43F470033B
:10239000C2F88830344B1B6803F00F03062B07D8B4
:1023A000314B1B6823F00F032F4A43F007031360E0
:1023B0002E4B1B682D4A43F0010313602B4B002268
:1023C0001A612A4B1A682949294B13400B60264B86
:1023D0001B6803F00803002B07D0234B1B6823F076
:1023E0000F03214A43F007031360204B00229A6138
:1023F0001E4B0022DA611D4B00221A621B4B1D4A44
:102400009A621A4B1C4ADA62184B1C4A1A63174B21
:1024100000225A63154B194A9A63144B0022DA635F
:10242000124B164A1A64114B00225A640F4B1B6858
:102430000E4A23F4802313600C4B00221A66104BC3
:102440001A68104B1340B3F1005F02D20E4B012209
:102450001A600E4B43F2D2021A6000BFBD465DF80F
:10246000047B704700ED00E0002000520044025859
:102470007FEDF6EA000202020000FF018002010186
:102480000010005C0000FFFF088100510040005276
:1024900080B500AF224B234A1A60214B4FF4E13242
:1024A0005A601F4B00229A601D4B0022DA601C4BC1
:1024B00000221A611A4B0C225A61194B00229A61B0
:1024C000174B0022DA61164B00221A62144B0022CD
:1024D0005A62134B00229A62114806F0CDFD034662
:1024E000002B01D0FFF7C4FD00210D4808F0CEFFFE
:1024F0000346002B01D0FFF7BBFD0021084809F07F
:1025000003F80346002B01D0FFF7B2FD044808F0A2
:1025100084FF0346002B01D0FFF7AAFD00BF80BD5A
:10252000400700240078004080B500AF224B234ACA
:102530001A60214B224A5A601F4B00229A601E4BA0
:102540000022DA601C4B00221A611B4B0C225A61DC
:10255000194B00229A61184B0022DA61164B0022B7
:102560001A62154B00225A62134B00229A621248DB
:1025700006F082FD0346002B01D0FFF779FD002114
:102580000D4808F083FF0346002B01D0FFF770FDD4
:102590000021094808F0B8FF0346002B01D0FFF7DF
:1025A00067FD054808F039FF0346002B01D0FFF70F
:1025B0005FFD00BF80BD00BFD407002400100140B4
:1025C00080841E0080B500AF224B234A1A60214B45
:1025D0004FF4E1325A601F4B00229A601D4B0022DB
:1025E000DA601C4B00221A611A4B0C225A61194BFB
:1025F00000229A61174B0022DA61164B00221A6200
:10260000144B00225A62134B00229A62114806F0C2
:1026100033FD0346002B01D0FFF72AFD00210D48B2
:1026200008F034FF0346002B01D0FFF721FD002105
:10263000084808F069FF0346002B01D0FFF718FD9A
:10264000044808F0EAFE0346002B01D0FFF710FD16
:1026500000BF80BD680800240048004080B5BEB0BF
:1026600000AF786007F1E40300221A605A609A60B4
:10267000DA601A6107F12003C022002118461AF01F
:1026800002FD7B681B68AA4A934247D14FF00202C1
:102690004FF00003C7E908230023C7F8983007F17B
:1026A0002003184604F0EEFB0346002B01D0FFF791
:1026B000DFFCA04BD3F8E8309E4A43F08043C2F8D9
:1026C000E8309C4BD3F8E83003F08043FB61FB69B2
:1026D000984BD3F8E030974A43F01003C2F8E0304B
:1026E000944BD3F8E03003F01003BB61BB694FF4A7
:1026F000C073C7F8E4300223C7F8E8300023C7F8F6
:10270000EC300023C7F8F0300723C7F8F43007F1A6
:10271000E4031946884803F06FF905E17B681B68FC
:10272000864A934240F0AC804FF001024FF0000324
:10273000C7E908230023C7F89C3007F12003184697
:1027400004F0A0FB0346002B01D0FFF791FC794B6E
:10275000D3F8F030774A43F01003C2F8F030754BED
:10276000D3F8F03003F010037B617B69714BD3F831
:10277000E030704A43F00103C2F8E0306D4BD3F80B
:10278000E03003F001033B613B694FF4C063C7F8DD
:10279000E4300223C7F8E8300023C7F8EC30002308
:1027A000C7F8F0300723C7F8F43007F1E4031946FF
:1027B000634803F021F9634B634A1A60614B292295
:1027C0005A60604B00229A605E4B0022DA605D4BDB
:1027D0004FF480621A615B4B00225A61594B002210
:1027E0009A61584B4FF48072DA61564B00221A629C
:1027F000544B00225A62534800F0B6FA0346002BAD
:1028000001D0FFF735FC7B684E4AC3F880204D4A63
:102810007B6893634D4B4E4A1A604C4B2A225A6098
:102820004A4B40229A60494B0022DA60474B4FF4F2
:1028300080621A61454B00225A61444B00229A6122
:10284000424B0022DA61414B00221A623F4B0022C8
:102850005A623E4800F088FA0346002B01D0FFF789
:1028600007FC7B68394ADA67384A7B689363002241
:102870000521252000F0D3F9252000F0EAF953E0E6
:102880007B681B68334A93424ED14FF002024FF0EF
:102890000003C7E908230023C7F8983007F1200395
:1028A000184604F0EFFA0346002B01D0FFF7E0FBD7
:1028B000204BD3F8E8301F4A43F48023C2F8E830B5
:1028C0001C4BD3F8E83003F48023FB60FB68194B02
:1028D000D3F8E030174A43F00803C2F8E030154B54
:1028E000D3F8E03003F00803BB60BB684FF44073DB
:1028F000C7F8E4300223C7F8E8300023C7F8EC300B
:102900000023C7F8F0300723C7F8F43007F1E403D9
:102910001946114803F070F800220521272000F025
:102920007EF9272000F095F900BFF837BD4680BD3D
:102930000078004000440258001002580010014086
:1029400000000258FC080024100002407409002412
:102950002800024000480040000C0258DFF834D044
:10296000FFF70EFD0C480D490D4A002302E0D45834
:10297000C4500433C4188C42F9D30A4A0A4C0023C9
:1029800001E013600432A242FBD31AF0CFFBFFF741
:1029900055FA704700000824000000247805002440
:1029A000DC0402087805002404010224FEE700008C
:1029B00080B582B000AF032000F026F904F04AF899
:1029C0000246154B9B691B0A03F00F031349CB5CAE
:1029D00003F01F0322FA03F37B600F4B9B6903F0A4
:1029E0000F030E4AD35C03F01F037A6822FA03F345
:1029F0000B4A13600B4A7B6813600F20FFF75CFBE8
:102A00000346002B01D0012302E0FFF737FB002330
:102A100018460837BD4680BD0044025870F30108CF
:102A2000180000241400002480B400AF064B1B786B
:102A30001A46064B1B681344044A136000BFBD4688
:102A40005DF8047B704700BF20000024EC090024DF
:102A500080B400AF034B1B681846BD465DF8047B8D
:102A6000704700BFEC09002480B400AF034B1B6823
:102A70001B0C1846BD465DF8047B70470010005CD7
:102A800080B485B000AF78607B6803F00703FB601B
:102A90000B4BDB68BB60BA684FF6FF031340BB60AB
:102AA000FB681A02BB681A43064B1343BB60044A17
:102AB000BB68D36000BF1437BD465DF8047B704728
:102AC00000ED00E00000FA0580B400AF044BDB68C5
:102AD0001B0A03F007031846BD465DF8047B7047E8
:102AE00000ED00E080B483B000AF0346FB80B7F98F
:102AF0000630002B0BDBFB8803F01F020749B7F9F8
:102B000006305B09012000FA02F241F8232000BFE1
:102B10000C37BD465DF8047B704700BF00E100E064
:102B200080B483B000AF03463960FB80B7F906304C
:102B3000002B0ADB3B68DAB20C49B7F90630120108
:102B4000D2B20B4483F800230AE03B68DAB20849AA
:102B5000FB8803F00F03043B1201D2B20B441A7638
:102B600000BF0C37BD465DF8047B704700E100E014
:102B700000ED00E080B489B000AFF860B9607A6021
:102B8000FB6803F00703FB61FB69C3F10703042B38
:102B900028BF0423BB61FB690433062B02D9FB6900
:102BA000033B00E000237B614FF0FF32BB6902FA78
:102BB00003F3DA43BB681A407B699A404FF0FF3158
:102BC0007B6901FA03F3D9437B680B401343184632
:102BD0002437BD465DF8047B7047000080B400AF29
:102BE000BFF34F8F00BF064BDB6803F4E06204497C
:102BF000044B1343CB60BFF34F8F00BF00BFFDE713
:102C000000ED00E00400FA0580B582B000AF786006
:102C10007868FFF735FF00BF0837BD4680BD80B537
:102C200086B000AF0346B9607A60FB81FFF74CFFC6
:102C300078617A68B9687869FFF79CFF0246B7F94E
:102C40000E3011461846FFF76BFF00BF1837BD4620
:102C500080BD80B582B000AF0346FB80B7F9063077
:102C60001846FFF73FFF00BF0837BD4680BD80B55F
:102C700000AFFFF7B3FF000080B400AFBFF35F8F7A
:102C800000BF074B5B6A064A23F480335362054B4F
:102C900000225A6000BFBD465DF8047B704700BF4C
:102CA00000ED00E090ED00E080B483B000AF78600C
:102CB0000B4A7B6843F0010353600A4B5B6A094A85
:102CC00043F480335362BFF34F8F00BFBFF36F8F66
:102CD00000BF00BF0C37BD465DF8047B704700BFE6
:102CE00090ED00E000ED00E080B483B000AF7860CC
:102CF0007B685A781B4B9A601A4B1B69194A23F060
:102D000001031361174A7B685B68D3607B681B7B98
:102D10001A077B68DB7A1B061A437B689B7ADB0405
:102D20001A437B685B7B9B041A437B689B7B5B0439
:102D30001A437B68DB7B1B041A437B685B7A1B02AC
:102D40001A437B681B7A5B0013437A68127811463A
:102D5000044A0B43136100BF0C37BD465DF8047B8A
:102D6000704700BF90ED00E080B586B000AF78609E
:102D7000FFF76EFE38617B68002B01D1012316E35B
:102D80007B681B68664A93424AD07B681B68654A29
:102D9000934245D07B681B68634A934240D07B686E
:102DA0001B68624A93423BD07B681B68604A93422F
:102DB00036D07B681B685F4A934231D07B681B68C2
:102DC0005D4A93422CD07B681B685C4A934227D0B3
:102DD0007B681B685A4A934222D07B681B68594A19
:102DE00093421DD07B681B68574A934218D07B687A
:102DF0001B68564A934213D07B681B68544A93421F
:102E00000ED07B681B68534A934209D07B681B68CD
:102E1000514A934204D07B681B68504A934201D1C7
:102E2000012300E00023002B00F03B817B6802229D
:102E300083F835207B68002283F834207B681B6888
:102E4000374A93424AD07B681B68364A934245D042
:102E50007B681B68344A934240D07B681B68334AC6
:102E600093423BD07B681B68314A934236D07B68E3
:102E70001B68304A934231D07B681B682E4A9342CC
:102E80002CD07B681B682D4A934227D07B681B6837
:102E90002B4A934222D07B681B682A4A93421DD05A
:102EA0007B681B68284A934218D07B681B68274AB6
:102EB000934213D07B681B68254A93420ED07B68EF
:102EC0001B68244A934209D07B681B68224A9342BC
:102ED00004D07B681B68214A934208D17B681B6839
:102EE0001A687B681B6822F001021A6007E07B68A1
:102EF0001B681A687B681B6822F001021A602FE0C9
:102F0000FFF7A6FD02463B69D31A052B28D97B683B
:102F100020225A657B68032283F83520012346E28C
:102F200010000240280002404000024058000240C9
:102F30007000024088000240A0000240B800024039
:102F40001004024028040240400402405804024099
:102F50007004024088040240A0040240B804024009
:102F60007B681B681B6803F00103002BC8D17B68DA
:102F70001B681B687B617A69834B13407B617B68AC
:102F80009A687B68DB681A437B681B691A437B6815
:102F90005B691A437B689B691A437B68DB691A4348
:102FA0007B681B6A13437A6913437B617B685B6AA6
:102FB000042B07D17B68DA6A7B681B6B13437A6941
:102FC00013437B61714B1A68714B1340B3F1005F7F
:102FD00028D37B685B68282B03D97B685B682E2B22
:102FE00017D97B685B683E2B03D97B685B68422BF3
:102FF0000FD97B685B68462B03D97B685B68482BDD
:1030000007D97B685B684E2B05D97B685B68522BC0
:1030100001D8012300E00023002B03D07B6943F497
:1030200080137B617B681B687A691A607B681B6808
:103030005B697B617B6923F007037B617B685B6A6B
:103040007A6913437B617B685B6A042B17D17B68C9
:103050009B6A7A6913437B617B68DB6A002B0ED025
:10306000786802F03FFB0346002B08D07B684022C3
:103070005A657B68012283F83520012397E17B683C
:103080001B687A695A61786802F07AFA0346BB6075
:103090007B68DB6D03F01F033F229A40BB689A6098
:1030A000CDE07B681B683B4A934222D07B681B685B
:1030B000394A93421DD07B681B68384A934218D026
:1030C0007B681B68364A934213D07B681B68354A7D
:1030D00093420ED07B681B68334A934209D07B68C9
:1030E0001B68324A934204D07B681B68304A934283
:1030F00001D1012300E00023002B00F097807B68C2
:103100001B68244A934221D07B681B68224A934261
:103110001CD07B681B68214A934217D07B681B68D0
:103120001F4A934212D07B681B681E4A93420DD0FF
:103130007B681B681C4A934208D07B681B681B4A4B
:10314000934203D07B681B68194A93427B68022232
:1031500083F835207B68002283F834207B681B6865
:103160001B687B617A69134B13407B617B689B68AA
:10317000402B21D07B689B68802B02D14FF4804389
:103180001BE0002319E000BF3F8010FE0010005C30
:103190000000FFFF085402581C54025830540258D3
:1031A00044540258585402586C54025880540258DF
:1031B000945402580F00FEFF10237A68D268D20898
:1031C0001A437B681B69DB081A437B685B69DB0871
:1031D0001A437B689B69DB081A437B68DB69DB0861
:1031E0001A437B681B6A1B0913437A6913437B618B
:1031F0007B681B687A691A607B681B681A466E4B8D
:1032000013446E4AA2FB03231B099A007B68DA650C
:10321000786802F0B5F90346FB607B68DB6D03F06C
:103220001F0301229A40FB685A6008E07B68402235
:103230005A657B68032283F835200123B7E07B6859
:103240001B685F4A934272D07B681B685D4A934259
:103250006DD07B681B685C4A934268D07B681B68B2
:103260005A4A934263D07B681B68594A93425ED0A6
:103270007B681B68574A934259D07B681B68564A43
:10328000934254D07B681B68544A93424FD07B686A
:103290001B68534A93424AD07B681B68514A934249
:1032A00045D07B681B68504A934240D07B681B68BE
:1032B0004E4A93423BD07B681B684D4A934236D0BE
:1032C0007B681B684B4A934231D07B681B684A4A33
:1032D00093422CD07B681B68484A934227D07B6876
:1032E0001B68474A934222D07B681B68454A934239
:1032F0001DD07B681B68444A934218D07B681B68CA
:10330000424A934213D07B681B68414A93420ED0D5
:103310007B681B683F4A934209D07B681B683E4A22
:10332000934204D07B681B683C4A934201D101233D
:1033300000E00023002B32D0786802F04FFA7B685F
:103340009B68802B02D17B6800225A607B685A6898
:103350007B681B6ED2B21A607B685B6E7A68926E75
:103360005A607B685B68002B10D07B685B68082B19
:103370000CD8786802F0CCFA7B68DB6E00221A6009
:103380007B681B6F7A68526F5A6008E07B68002286
:10339000DA667B6800221A677B6800225A677B68BE
:1033A00000225A657B68012283F8352000231846E5
:1033B0001837BD4680BD00BFF8ABFDA7CDCCCCCC47
:1033C0001000024028000240400002405800024025
:1033D0007000024088000240A0000240B800024095
:1033E00010040240280402404004024058040240F5
:1033F0007004024088040240A0040240B804024065
:10340000085402581C54025830540258445402586C
:10341000585402586C54025880540258945402581C
:1034200080B586B000AFF860B9607A603B60002379
:10343000FB75FB68002B01D1012326E2FB6893F8A2
:103440003430012B01D102231FE2FB68012283F8F3
:103450003420FB6893F83530DBB2012B40F00A8250
:10346000FB68022283F83520FB6800225A65FB685E
:103470001B68684A93424AD0FB681B68664A9342BD
:1034800045D0FB681B68654A934240D0FB681B68C7
:10349000634A93423BD0FB681B68624A934236D032
:1034A000FB681B68604A934231D0FB681B685F4A27
:1034B00093422CD0FB681B685D4A934227D0FB687F
:1034C0001B685C4A934222D0FB681B685A4A9342AD
:1034D0001DD0FB681B68594A934218D0FB681B68D3
:1034E000574A934213D0FB681B68564A93420ED04A
:1034F000FB681B68544A934209D0FB681B68534A17
:10350000934204D0FB681B68514A934208D1FB6880
:103510001B681A68FB681B6822F001021A6007E04A
:10352000FB681B681A68FB681B6822F001021A60BE
:103530003B687A68B968F86801F076FEFB681B683A
:10354000344A93424AD0FB681B68334A934245D0C1
:10355000FB681B68314A934240D0FB681B68304AC5
:1035600093423BD0FB681B682E4A934236D0FB68DF
:103570001B682D4A934231D0FB681B682B4A93424B
:103580002CD0FB681B682A4A934227D0FB681B6833
:10359000284A934222D0FB681B68274A93421DD0D9
:1035A000FB681B68254A934218D0FB681B68244AB5
:1035B000934213D0FB681B68224A93420ED0FB68EB
:1035C0001B68214A934209D0FB681B681F4A93423B
:1035D00004D0FB681B681E4A934201D1012300E01E
:1035E0000023002B36D0FB681B681B6823F01E02EB
:1035F000FB681B6842F016021A60FB681B6C002B0C
:103600003ED0FB681B681A68FB681B6842F0080222
:103610001A6035E0100002402800024040000240DD
:10362000580002407000024088000240A0000240A2
:10363000B800024010040240280402404004024046
:10364000580402407004024088040240A004024072
:10365000B8040240FB681B681B6823F00E02FB687D
:103660001B6842F00A021A60FB681B6C002B07D033
:10367000FB681B681A68FB681B6842F004021A604A
:10368000FB681B68834A934272D0FB681B68824ABE
:1036900093426DD0FB681B68804A934268D0FB68F8
:1036A0001B687F4A934263D0FB681B687D4A934244
:1036B0005ED0FB681B687C4A934259D0FB681B684C
:1036C0007A4A934254D0FB681B68794A93424FD0A0
:1036D000FB681B68774A93424AD0FB681B68764AAE
:1036E000934245D0FB681B68744A934240D0FB6804
:1036F0001B68734A93423BD0FB681B68714A934234
:1037000036D0FB681B68704A934231D0FB681B6857
:103710006E4A93422CD0FB681B686D4A934227D0B7
:10372000FB681B686B4A934222D0FB681B686A4A9D
:1037300093421DD0FB681B68684A934218D0FB680F
:103740001B68674A934213D0FB681B68654A934223
:103750000ED0FB681B68644A934209D0FB681B6863
:10376000624A934204D0FB681B68614A934201D1CC
:10377000012300E00023002B1AD0FB681B6E1B689E
:1037800003F48033002B07D0FB681B6E1A68FB68BC
:103790001B6E42F480721A60FB68DB6E002B07D050
:1037A000FB68DB6E1A68FB68DB6E42F480721A609D
:1037B000FB681B68374A93424AD0FB681B68364A4D
:1037C000934245D0FB681B68344A934240D0FB6863
:1037D0001B68334A93423BD0FB681B68314A9342D3
:1037E00036D0FB681B68304A934231D0FB681B68B7
:1037F0002E4A93422CD0FB681B682D4A934227D057
:10380000FB681B682B4A934222D0FB681B682A4A3C
:1038100093421DD0FB681B68284A934218D0FB686E
:103820001B68274A934213D0FB681B68254A9342C2
:103830000ED0FB681B68244A934209D0FB681B68C2
:10384000224A934204D0FB681B68214A934208D164
:10385000FB681B681A68FB681B6842F001021A606B
:1038600012E0FB681B681A68FB681B6842F00102E3
:103870001A6009E0FB684FF400625A65FB68002299
:1038800083F834200123FB75FB7D18461837BD46AD
:1038900080BD00BF100002402800024040000240EE
:1038A000580002407000024088000240A000024020
:1038B000B8000240100402402804024040040240C4
:1038C000580402407004024088040240A0040240F0
:1038D000B8040240085402581C540258305402588C
:1038E00044540258585402586C5402588054025898
:1038F0009454025880B586B000AF7860FFF7A8F8FE
:1039000038617B68002B01D10123DCE27B6893F8EE
:103910003530DBB2022B08D07B6880225A657B6889
:10392000002283F834200123CDE27B681B68764AAD
:1039300093424AD07B681B68744A934245D07B68A7
:103940001B68734A934240D07B681B68714A93425C
:103950003BD07B681B68704A934236D07B681B68FB
:103960006E4A934231D07B681B686D4A93422CD0DB
:103970007B681B686B4A934227D07B681B686A4A46
:10398000934222D07B681B68684A93421DD07B68B3
:103990001B68674A934218D07B681B68654A93424C
:1039A00013D07B681B68644A93420ED07B681B6807
:1039B000624A934209D07B681B68614A934204D0F3
:1039C0007B681B685F4A934201D1012300E000231A
:1039D000002B13D07B681B681A687B681B6822F079
:1039E0001E021A607B681B685A697B681B6822F09C
:1039F00080025A617B681B687B610AE07B681B68F8
:103A00001A687B681B6822F00E021A607B681B68CC
:103A10007B617B681B683C4A934272D07B681B6861
:103A20003A4A93426DD07B681B68394A934268D00A
:103A30007B681B68374A934263D07B681B68364AB1
:103A400093425ED07B681B68344A934259D07B68AE
:103A50001B68334A934254D07B681B68314A9342B7
:103A60004FD07B681B68304A93424AD07B681B6802
:103A70002E4A934245D07B681B682D4A934240D022
:103A80007B681B682B4A93423BD07B681B682A4AA1
:103A9000934236D07B681B68284A934231D07B68BA
:103AA0001B68274A93422CD07B681B68254A9342A7
:103AB00027D07B681B68244A934222D07B681B680E
:103AC000224A93421DD07B681B68214A934218D03A
:103AD0007B681B681F4A934213D07B681B681E4A91
:103AE00093420ED07B681B681C4A934209D07B68C6
:103AF0001B681B4A934204D07B681B68194A934297
:103B000032D1012331E000BF100002402800024002
:103B1000400002405800024070000240880002400D
:103B2000A0000240B80002401004024028040240F5
:103B300040040240580402407004024088040240DD
:103B4000A0040240B8040240085402581C54025811
:103B50003054025844540258585402586C54025875
:103B600080540258945402580023002B07D07B68DD
:103B70001B6E1A687B681B6E22F480721A607B6869
:103B80001B686D4A93424AD07B681B686B4A93421C
:103B900045D07B681B686A4A934240D07B681B68AB
:103BA000684A93423BD07B681B68674A934236D091
:103BB0007B681B68654A934231D07B681B68644A06
:103BC00093422CD07B681B68624A934227D07B6863
:103BD0001B68614A934222D07B681B685F4A93420C
:103BE0001DD07B681B685E4A934218D07B681B68B7
:103BF0005C4A934213D07B681B685B4A93420ED0A9
:103C00007B681B68594A934209D07B681B68584AF5
:103C1000934204D07B681B68564A934208D17B6864
:103C20001B681A687B681B6822F001021A6007E0B3
:103C30007B681B681A687B681B6822F001021A60A7
:103C400013E0FEF705FF02463B69D31A052B0CD99A
:103C50007B6820225A657B68032283F835207B68C5
:103C6000002283F8342001232DE17B691B6803F0D7
:103C70000103002BE5D17B681B682F4A93424AD091
:103C80007B681B682D4A934245D07B681B682C4A91
:103C9000934240D07B681B682A4A93423BD07B68A2
:103CA0001B68294A934236D07B681B68274A934297
:103CB00031D07B681B68264A93422CD07B681B68F6
:103CC000244A934227D07B681B68234A934222D020
:103CD0007B681B68214A93421DD07B681B68204A81
:103CE000934218D07B681B681E4A934213D07B68AE
:103CF0001B681D4A93420ED07B681B681B4A934287
:103D000009D07B681B681A4A934204D07B681B6801
:103D1000184A934201D1012300E00023002B2BD04D
:103D20007B689B6DBB607B68DB6D03F01F033F22EC
:103D30009A40BB689A602AE01000024028000240C6
:103D400040000240580002407000024088000240DB
:103D5000A0000240B80002401004024028040240C3
:103D600040040240580402407004024088040240AB
:103D7000A0040240B80402407B689B6DFB607B6836
:103D8000DB6D03F01F0301229A40FB685A607B68D9
:103D90001B684F4A934272D07B681B684D4A93421E
:103DA0006DD07B681B684C4A934268D07B681B6867
:103DB0004A4A934263D07B681B68494A93425ED06B
:103DC0007B681B68474A934259D07B681B68464A08
:103DD000934254D07B681B68444A93424FD07B681F
:103DE0001B68434A93424AD07B681B68414A93420E
:103DF00045D07B681B68404A934240D07B681B6873
:103E00003E4A93423BD07B681B683D4A934236D082
:103E10007B681B683B4A934231D07B681B683A4AF7
:103E200093422CD07B681B68384A934227D07B682A
:103E30001B68374A934222D07B681B68354A9342FD
:103E40001DD07B681B68344A934218D07B681B687E
:103E5000324A934213D07B681B68314A93420ED09A
:103E60007B681B682F4A934209D07B681B682E4AE7
:103E7000934204D07B681B682C4A934201D10123F2
:103E800000E00023002B15D07B685B6E7A68926E91
:103E90005A607B68DB6E002B0CD07B68DB6E1A6887
:103EA0007B68DB6E22F480721A607B681B6F7A6815
:103EB000526F5A607B68012283F835207B680022AC
:103EC00083F83420002318461837BD4680BD00BF54
:103ED000100002402800024040000240580002400A
:103EE0007000024088000240A0000240B80002407A
:103EF00010040240280402404004024058040240DA
:103F00007004024088040240A0040240B804024049
:103F1000085402581C540258305402584454025851
:103F2000585402586C540258805402589454025801
:103F300080B584B000AF78607B68002B01D101238D
:103F400037E27B6893F83530DBB2022B04D07B6814
:103F500080225A6501232CE27B681B685C4A9342ED
:103F60004AD07B681B685B4A934245D07B681B68DC
:103F7000594A934240D07B681B68584A93423BD0D1
:103F80007B681B68564A934236D07B681B68554A4B
:103F9000934231D07B681B68534A93422CD07B6894
:103FA0001B68524A934227D07B681B68504A934251
:103FB00022D07B681B684F4A93421DD07B681B68E8
:103FC0004D4A934218D07B681B684C4A934213D0E9
:103FD0007B681B684A4A93420ED07B681B68494A3B
:103FE000934209D07B681B68474A934204D07B68A0
:103FF0001B68464A934201D1012300E00023002BB5
:1040000000F086807B68042283F835207B681B687B
:104010002F4A93424AD07B681B682E4A934245D070
:104020007B681B682C4A934240D07B681B682B4AF4
:1040300093423BD07B681B68294A934236D07B6809
:104040001B68284A934231D07B681B68264A9342FA
:104050002CD07B681B68254A934227D07B681B685D
:10406000234A934222D07B681B68224A93421DD088
:104070007B681B68204A934218D07B681B681F4AE4
:10408000934213D07B681B681D4A93420ED07B6815
:104090001B681C4A934209D07B681B681A4A9342EA
:1040A00004D07B681B68194A934208D17B681B685F
:1040B0001A687B681B6822F001021A6078E17B684D
:1040C0001B681A687B681B6822F001021A606FE1A6
:1040D0001000024028000240400002405800024008
:1040E0007000024088000240A0000240B800024078
:1040F00010040240280402404004024058040240D8
:104100007004024088040240A0040240B804024047
:104110007B681B681A687B681B6822F00E021A60B5
:104120007B681B686C4A93424AD07B681B686B4A69
:10413000934245D07B681B68694A934240D07B68B4
:104140001B68684A93423BD07B681B68664A93426F
:1041500036D07B681B68654A934231D07B681B6808
:10416000634A93422CD07B681B68624A934227D0F3
:104170007B681B68604A934222D07B681B685F4A59
:1041800093421DD07B681B685D4A934218D07B68C0
:104190001B685C4A934213D07B681B685A4A93425F
:1041A0000ED07B681B68594A934209D07B681B6814
:1041B000574A934204D07B681B68564A934208D101
:1041C0007B681B681A687B681B6822F001021A6012
:1041D00007E07B681B681A687B681B6822F0010295
:1041E0001A607B681B683C4A934272D07B681B68EC
:1041F0003A4A93426DD07B681B68394A934268D033
:104200007B681B68374A934263D07B681B68364AD9
:1042100093425ED07B681B68344A934259D07B68D6
:104220001B68334A934254D07B681B68314A9342DF
:104230004FD07B681B68304A93424AD07B681B682A
:104240002E4A934245D07B681B682D4A934240D04A
:104250007B681B682B4A93423BD07B681B682A4AC9
:10426000934236D07B681B68284A934231D07B68E2
:104270001B68274A93422CD07B681B68254A9342CF
:1042800027D07B681B68244A934222D07B681B6836
:10429000224A93421DD07B681B68214A934218D062
:1042A0007B681B681F4A934213D07B681B681E4AB9
:1042B00093420ED07B681B681C4A934209D07B68EE
:1042C0001B681B4A934204D07B681B68194A9342BF
:1042D00032D1012331E000BF10000240280002402B
:1042E0004000024058000240700002408800024036
:1042F000A0000240B800024010040240280402401E
:104300004004024058040240700402408804024005
:10431000A0040240B8040240085402581C54025839
:104320003054025844540258585402586C5402589D
:1043300080540258945402580023002B28D07B68E4
:104340001B6E1A687B681B6E22F480721A607B6891
:104350009B6DFB607B68DB6D03F01F0301229A40BD
:10436000FB685A607B685B6E7A68926E5A607B6805
:10437000DB6E002B0CD07B68DB6E1A687B68DB6E13
:1043800022F480721A607B681B6F7A68526F5A60E1
:104390007B68012283F835207B68002283F8342073
:1043A0007B681B6D002B03D07B681B6D786898477A
:1043B000002318461037BD4680BD00BF80B58AB0C7
:1043C00000AF78600023FB60674B1B68674AA2FB65
:1043D00003239B0A7B627B689B6D3B627B689B6DC2
:1043E000FB613B6A1B68BB61FB691B687B617B6887
:1043F0001B685F4A93424AD07B681B685D4A9342C0
:1044000045D07B681B685C4A934240D07B681B6840
:104410005A4A93423BD07B681B68594A934236D034
:104420007B681B68574A934231D07B681B68564AA9
:1044300093422CD07B681B68544A934227D07B68F8
:104440001B68534A934222D07B681B68514A9342AF
:104450001DD07B681B68504A934218D07B681B684C
:104460004E4A934213D07B681B684D4A93420ED04C
:104470007B681B684B4A934209D07B681B684A4A99
:10448000934204D07B681B68484A934201D10123C0
:1044900000E00023002B00F02B847B68DB6D03F031
:1044A0001F0308229A40BB691340002B00F0A28032
:1044B0007B681B682E4A93424AD07B681B682D4A52
:1044C000934245D07B681B682B4A934240D07B685F
:1044D0001B682A4A93423BD07B681B68284A934258
:1044E00036D07B681B68274A934231D07B681B68B3
:1044F000254A93422CD07B681B68244A934227D0DC
:104500007B681B68224A934222D07B681B68214A41
:1045100093421DD07B681B681F4A934218D07B686A
:104520001B681E4A934213D07B681B681C4A934247
:104530000ED07B681B681B4A934209D07B681B68BE
:10454000194A934204D07B681B68184A93422FD1C2
:104550007B681B681B6803F00403002B14BF012356
:104560000023DBB22EE000BF14000024B5814E1BF7
:104570001000024028000240400002405800024063
:104580007000024088000240A0000240B8000240D3
:104590001004024028040240400402405804024033
:1045A0007004024088040240A0040240B8040240A3
:1045B0007B681B681B6803F00803002B14BF0123F2
:1045C0000023DBB2002B15D07B681B681A687B6860
:1045D0001B6822F004021A607B68DB6D03F01F0386
:1045E00008229A403B6A9A607B685B6D43F0010247
:1045F0007B685A657B68DB6D03F01F03BA6922FA9A
:1046000003F303F00103002B6ED07B681B68694A3B
:1046100093424AD07B681B68674A934245D07B68C7
:104620001B68664A934240D07B681B68644A934289
:104630003BD07B681B68634A934236D07B681B681B
:10464000614A934231D07B681B68604A93422CD008
:104650007B681B685E4A934227D07B681B685D4A73
:10466000934222D07B681B685B4A93421DD07B68D3
:104670001B685A4A934218D07B681B68584A934279
:1046800013D07B681B68574A93420ED07B681B6827
:10469000554A934209D07B681B68544A934204D020
:1046A0007B681B68524A93420AD17B681B685B692E
:1046B00003F08003002B14BF01230023DBB203E0CF
:1046C0007B681B681B680023002B0DD07B68DB6DAB
:1046D00003F01F0301229A403B6A9A607B685B6D7E
:1046E00043F002027B685A657B68DB6D03F01F03B1
:1046F00004229A40BB691340002B00F08F807B6836
:104700001B682C4A93424AD07B681B682A4A934212
:1047100045D07B681B68294A934240D07B681B6860
:10472000274A93423BD07B681B68264A934236D087
:104730007B681B68244A934231D07B681B68234AFC
:1047400093422CD07B681B68214A934227D07B6818
:104750001B68204A934222D07B681B681E4A934202
:104760001DD07B681B681D4A934218D07B681B686C
:104770001B4A934213D07B681B681A4A93420ED09F
:104780007B681B68184A934209D07B681B68174AEC
:10479000934204D07B681B68154A93422AD17B68F8
:1047A0001B681B6803F00203002B14BF01230023C6
:1047B000DBB223E01000024028000240400002402B
:1047C000580002407000024088000240A0000240F1
:1047D000B800024010040240280402404004024095
:1047E000580402407004024088040240A0040240C1
:1047F000B80402407B681B681B680023002B0DD0A7
:104800007B68DB6D03F01F0304229A403B6A9A60C9
:104810007B685B6D43F004027B685A657B68DB6DE7
:1048200003F01F0310229A40BB691340002B00F0D5
:10483000A6807B681B68854A93424AD07B681B68C8
:10484000834A934245D07B681B68824A934240D09A
:104850007B681B68804A93423BD07B681B687F4A19
:10486000934236D07B681B687D4A934231D07B6887
:104870001B687C4A93422CD07B681B687A4A93421F
:1048800027D07B681B68794A934222D07B681B68DB
:10489000774A93421DD07B681B68764A934218D0B2
:1048A0007B681B68744A934213D07B681B68734A09
:1048B00093420ED07B681B68714A934209D07B6893
:1048C0001B68704A934204D07B681B686E4A93420F
:1048D0000AD17B681B681B6803F00803002B14BF18
:1048E00001230023DBB209E07B681B681B6803F02F
:1048F0000403002B14BF01230023DBB2002B3ED0A6
:104900007B68DB6D03F01F0310229A403B6A9A60BC
:104910007B681B681B6803F48023002B18D07B681E
:104920001B681B6803F40023002B08D17B681B6CF9
:10493000002B24D07B681B6C786898471FE07B684D
:104940009B6C002B1BD07B689B6C7868984716E0AB
:104950007B681B681B6803F48073002B07D17B689E
:104960001B681A687B681B6822F008021A607B6863
:104970001B6C002B03D07B681B6C786898477B68A6
:10498000DB6D03F01F0320229A40BB691340002B0C
:1049900000F010817B681B682C4A93424AD07B68E8
:1049A0001B682B4A934245D07B681B68294A934277
:1049B00040D07B681B68284A93423BD07B681B68C9
:1049C000264A934236D07B681B68254A934231D0F1
:1049D0007B681B68234A93422CD07B681B68224A61
:1049E000934227D07B681B68204A934222D07B6881
:1049F0001B681F4A93421DD07B681B681D4A934267
:104A000018D07B681B681C4A934213D07B681B68D4
:104A10001A4A93420ED07B681B68194A934209D008
:104A20007B681B68174A934204D07B681B68164A50
:104A300093422BD17B681B681B6803F01003002B8B
:104A400014BF01230023DBB22AE000BF10000240A4
:104A5000280002404000024058000240700002401E
:104A600088000240A0000240B8000240100402404A
:104A700028040240400402405804024070040240EE
:104A800088040240A0040240B80402407B681B680E
:104A90001B6803F00203002B14BF01230023DBB2C9
:104AA000002B00F087807B68DB6D03F01F03202262
:104AB0009A403B6A9A607B6893F83530DBB2042BEE
:104AC00039D17B681B681A687B681B6822F0160264
:104AD0001A607B681B685A697B681B6822F0800239
:104AE0005A617B681B6C002B03D17B689B6C002B8D
:104AF00007D07B681B681A687B681B6822F0080275
:104B00001A607B68DB6D03F01F033F229A403B6A0B
:104B10009A607B68012283F835207B68002283F845
:104B200034207B681B6D002B00F04A837B681B6D73
:104B30007868984744E37B681B681B6803F480230C
:104B4000002B18D07B681B681B6803F40023002B24
:104B500008D17B685B6C002B2CD07B685B6C786821
:104B6000984727E07B68DB6B002B23D07B68DB6BEF
:104B7000786898471EE07B681B681B6803F48073A5
:104B8000002B0FD17B681B681A687B681B6822F0BA
:104B900010021A607B68012283F835207B680022AE
:104BA00083F834207B68DB6B002B03D07B68DB6BE6
:104BB000786898477B685B6D002B00F006837B6804
:104BC0005B6D03F00103002B00F088807B680422FA
:104BD00083F835207B681B687A4A93424AD07B6809
:104BE0001B68794A934245D07B681B68774A934299
:104BF00040D07B681B68764A93423BD07B681B6839
:104C0000744A934236D07B681B68734A934231D012
:104C10007B681B68714A93422CD07B681B68704A82
:104C2000934227D07B681B686E4A934222D07B68F0
:104C30001B686D4A93421DD07B681B686B4A934288
:104C400018D07B681B686A4A934213D07B681B6844
:104C5000684A93420ED07B681B68674A934209D02A
:104C60007B681B68654A934204D07B681B68644A72
:104C7000934208D17B681B681A687B681B6822F026
:104C800001021A6007E07B681B681A687B681B6872
:104C900022F001021A60FB680133FB607A6A9A42D3
:104CA00007D37B681B681B6803F00103002BF2D15C
:104CB00000E000BF7B681B681B6803F00103002B4A
:104CC00004D07B68032283F8352003E07B6801224F
:104CD00083F835207B68002283F834207B68DB6C06
:104CE000002B00F072827B68DB6C786898476CE27E
:104CF0007B681B68434A934222D07B681B68424A08
:104D000093421DD07B681B68404A934218D07B6851
:104D10001B683F4A934213D07B681B683D4A93420D
:104D20000ED07B681B683C4A934209D07B681B68A5
:104D30003A4A934204D07B681B68394A934201D1B6
:104D4000012300E00023002B00F03F827B681B68FA
:104D50001B683B617B68DB6D03F01F0304229A40F4
:104D60007B691340002B00F0CD803B6903F0040306
:104D7000002B00F0C7807B68DB6D03F01F0304226B
:104D80009A40FB695A603B6903F40043002B49D009
:104D90003B6903F48033002B09D17B689B6C002BAB
:104DA00000F010827B689B6C786898470AE27B6809
:104DB0001B6C002B00F006827B681B6C78689847A0
:104DC00000E200BF10000240280002404000024004
:104DD000580002407000024088000240A0000240DB
:104DE000B80002401004024028040240400402407F
:104DF000580402407004024088040240A0040240AB
:104E0000B8040240085402581C5402583054025846
:104E100044540258585402586C5402588054025852
:104E2000945402583B6903F02003002B60D17B6847
:104E30001B687F4A93424AD07B681B687D4A934235
:104E400045D07B681B687C4A934240D07B681B68D6
:104E50007A4A93423BD07B681B68794A934236D0AA
:104E60007B681B68774A934231D07B681B68764A1F
:104E700093422CD07B681B68744A934227D07B688E
:104E80001B68734A934222D07B681B68714A934225
:104E90001DD07B681B68704A934218D07B681B68E2
:104EA0006E4A934213D07B681B686D4A93420ED0C2
:104EB0007B681B686B4A934209D07B681B686A4A0F
:104EC000934204D07B681B68684A934208D17B6890
:104ED0001B681A687B681B6822F008021A6007E0EA
:104EE0007B681B681A687B681B6822F004021A60E2
:104EF0007B681B6C002B00F065817B681B6C7868FD
:104F000098475FE17B68DB6D03F01F0302229A4044
:104F10007B691340002B00F0C5803B6903F002035E
:104F2000002B00F0BF807B68DB6D03F01F030222C3
:104F30009A40FB695A603B6903F40043002B18D088
:104F40003B6903F48033002B09D17B685B6C002B39
:104F500000F03A817B685B6C7868984734E17B6845
:104F6000DB6B002B00F030817B68DB6B7868984747
:104F70002AE13B6903F02003002B40F089807B6825
:104F80001B682B4A93424AD07B681B68294A93428C
:104F900045D07B681B68284A934240D07B681B68D9
:104FA000264A93423BD07B681B68254A934236D001
:104FB0007B681B68234A934231D07B681B68224A76
:104FC00093422CD07B681B68204A934227D07B6891
:104FD0001B681F4A934222D07B681B681D4A93427C
:104FE0001DD07B681B681C4A934218D07B681B68E5
:104FF0001A4A934213D07B681B68194A93420ED019
:105000007B681B68174A934209D07B681B68164A65
:10501000934204D07B681B68144A934228D17B6872
:105020001B681A687B681B6822F014021A6027E06C
:105030001000024028000240400002405800024098
:105040007000024088000240A0000240B800024008
:105050001004024028040240400402405804024068
:105060007004024088040240A0040240B8040240D8
:105070007B681B681A687B681B6822F00A021A604A
:105080007B68012283F835207B68002283F8342076
:105090007B68DB6B002B00F097807B68DB6B7868AC
:1050A000984791E07B68DB6D03F01F0308229A406C
:1050B0007B691340002B00F088803B6903F00803F4
:1050C000002B00F082807B681B68414A93424AD0E3
:1050D0007B681B683F4A934245D07B681B683E4A09
:1050E000934240D07B681B683C4A93423BD07B682C
:1050F0001B683B4A934236D07B681B68394A93420F
:1051000031D07B681B68384A93422CD07B681B687F
:10511000364A934227D07B681B68354A934222D097
:105120007B681B68334A93421DD07B681B68324AF8
:10513000934218D07B681B68304A934213D07B6837
:105140001B682F4A93420ED07B681B682D4A9342FE
:1051500009D07B681B682C4A934204D07B681B688B
:105160002A4A934208D17B681B681A687B681B68CF
:1051700022F01C021A6007E07B681B681A687B68D3
:105180001B6822F00E021A607B68DB6D03F01F03C0
:1051900001229A40FB695A607B6801225A657B684C
:1051A000012283F835207B68002283F834207B6855
:1051B000DB6C002B09D07B68DB6C7868984704E0D7
:1051C00000BF02E000BF00E000BF2837BD4680BD41
:1051D00010000240280002404000024058000240F7
:1051E0007000024088000240A0000240B800024067
:1051F00010040240280402404004024058040240C7
:105200007004024088040240A0040240B804024036
:1052100080B483B000AF78607B685B6D18460C3754
:10522000BD465DF8047B704780B487B000AFF8607E
:10523000B9607A603B60FB689B6D7B61FB689B6D2E
:105240003B61FB681B687F4A934272D0FB681B6816
:105250007D4A93426DD0FB681B687C4A934268D0BC
:10526000FB681B687A4A934263D0FB681B68794AE3
:1052700093425ED0FB681B68774A934259D0FB6823
:105280001B68764A934254D0FB681B68744A934269
:105290004FD0FB681B68734A93424AD0FB681B6877
:1052A000714A934245D0FB681B68704A934240D0D4
:1052B000FB681B686E4A93423BD0FB681B686D4AD3
:1052C000934236D0FB681B686B4A934231D0FB682F
:1052D0001B686A4A93422CD0FB681B68684A934259
:1052E00027D0FB681B68674A934222D0FB681B6883
:1052F000654A93421DD0FB681B68644A934218D0EC
:10530000FB681B68624A934213D0FB681B68614AC2
:1053100093420ED0FB681B685F4A934209D0FB683A
:105320001B685E4A934204D0FB681B685C4A934248
:1053300001D1012300E00023002B0DD0FB685B6E40
:10534000FA68926E5A60FB68DB6E002B04D0FB6833
:105350001B6FFA68526F5A60FB681B68394A9342A8
:105360004AD0FB681B68384A934245D0FB681B68EB
:10537000364A934240D0FB681B68354A93423BD083
:10538000FB681B68334A934236D0FB681B68324A7D
:10539000934231D0FB681B68304A93422CD0FB68A3
:1053A0001B682F4A934227D0FB681B682D4A934203
:1053B00022D0FB681B682C4A93421DD0FB681B68F7
:1053C0002A4A934218D0FB681B68294A934213D09B
:1053D000FB681B68274A93420ED0FB681B68264A6D
:1053E000934209D0FB681B68244A934204D0FB68AF
:1053F0001B68234A934201D1012300E00023002BC4
:1054000059D0FB68DB6D03F01F033F229A407B6994
:105410009A60FB681B681A68FB681B6822F480228C
:105420001A60FB681B683A685A60FB689B68402BEF
:1054300038D1FB681B687A689A60FB681B68BA6899
:10544000DA6086E01000024028000240400002407E
:10545000580002407000024088000240A000024054
:10546000B8000240100402402804024040040240F8
:10547000580402407004024088040240A004024024
:10548000B8040240085402581C54025830540258C0
:1054900044540258585402586C54025880540258CC
:1054A00094540258FB681B68BA689A60FB681B68D2
:1054B0007A68DA604DE0FB681B68294A934222D083
:1054C000FB681B68274A93421DD0FB681B68264A6D
:1054D000934218D0FB681B68244A934213D0FB68A0
:1054E0001B68234A93420ED0FB681B68214A9342F3
:1054F00009D0FB681B68204A934204D0FB681B68F4
:105500001E4A934201D1012300E00023002B20D04A
:10551000FB68DB6D03F01F0301229A403B695A6070
:10552000FB681B683A685A60FB689B68402B08D18F
:10553000FB681B687A689A60FB681B68BA68DA6067
:1055400007E0FB681B68BA689A60FB681B687A68AA
:10555000DA6000BF1C37BD465DF8047B704700BFB2
:10556000085402581C5402583054025844540258EB
:10557000585402586C54025880540258945402589B
:1055800080B485B000AF78607B681B68424A934264
:105590004AD07B681B68414A934245D07B681B68B0
:1055A0003F4A934240D07B681B683E4A93423BD0BF
:1055B0007B681B683C4A934236D07B681B683B4A39
:1055C000934231D07B681B68394A93422CD07B6868
:1055D0001B68384A934227D07B681B68364A93423F
:1055E00022D07B681B68354A93421DD07B681B68BC
:1055F000334A934218D07B681B68324A934213D0D7
:105600007B681B68304A93420ED07B681B682F4A28
:10561000934209D07B681B682D4A934204D07B6873
:105620001B682C4A934201D1012300E00023002B88
:1056300024D07B681B68DBB2103B274AA2FB032304
:105640001B09FB60FB6803F00703244AD35C1A467E
:105650007B68DA65FB68032B08D97B681B681A46F0
:105660001F4B13401A1D7B689A650DE07B681B6811
:105670001A461B4B13407A68936505E07B681B68EC
:1056800023F0FF027B689A657B689B6D1846143790
:10569000BD465DF8047B70471000024028000240C0
:1056A0004000024058000240700002408800024062
:1056B000A0000240B800024010040240280402404A
:1056C0004004024058040240700402408804024032
:1056D000A0040240B8040240ABAAAAAA80F30108C1
:1056E00000FCFFFF80B485B000AF78600023FB733F
:1056F0007B689B69002B20D17B689B6A032B58D861
:1057000001A252F823F000BF195700082B570008D8
:1057100019570008B35700087B68DB6A03F08073F1
:10572000002B48D00123FB7345E07B68DB6AB3F1B3
:10573000C07F42D10123FB733FE07B689B69B3F5D7
:10574000005F23D17B689B6A032B38D801A252F8F3
:1057500023F000BF655700086B5700086557000825
:105760007D5700080123FB7330E07B68DB6A03F0A0
:105770008073002B25D00123FB7322E07B68DB6A5A
:10578000B3F1C07F1FD10123FB731CE07B689B6AD0
:10579000022B02D9032B03D018E00123FB7315E081
:1057A0007B68DB6A03F08073002B0ED00123FB7350
:1057B0000BE000BF0AE000BF08E000BF06E000BF4A
:1057C00004E000BF02E000BF00E000BFFB7B184622
:1057D0001437BD465DF8047B704700BF80B485B0C8
:1057E00000AF78607B681B68BB607B681B68384AC9
:1057F000934222D07B681B68364A93421DD07B6857
:105800001B68354A934218D07B681B68334A934221
:1058100013D07B681B68324A93420ED07B681B68AA
:10582000304A934209D07B681B682F4A934204D0C8
:105830007B681B682D4A934201D1012300E00023BD
:10584000002B1AD07B681B68DBB2083B284AA2FBFE
:1058500003231B09FB60FA68264B13449B001A467E
:105860007B681A667B68244A5A66FB6803F01F034C
:1058700001229A407B689A6624E07B681B68DBB251
:10588000103B1E4AA2FB03231B09FB60BB681C4A9A
:10589000934206D8BB681B4A934202D9FB6808337F
:1058A000FB60FA68184B13449B001A467B681A6623
:1058B0007B68164A5A66FB6803F01F0301229A4070
:1058C0007B689A6600BF1437BD465DF8047B70475D
:1058D000085402581C540258305402584454025878
:1058E000585402586C540258805402589454025828
:1058F000CDCCCCCC0096001680580258ABAAAAAAF0
:10590000B80402400F0402400082001080080240E8
:1059100080B485B000AF78607B685B68DBB2FB6009
:10592000FB68002B4AD0FB68082B47D87B681B68B4
:10593000254A934222D07B681B68244A93421DD09B
:105940007B681B68224A934218D07B681B68214AF7
:10595000934213D07B681B681F4A93420ED07B682A
:105960001B681E4A934209D07B681B681C4A9342FD
:1059700004D07B681B681B4A934201D1012300E0DD
:105980000023002B0AD0FA68174B13449B001A46D9
:105990007B68DA667B68154A1A6709E0FA68144B77
:1059A00013449B001A467B68DA667B68114A1A67C3
:1059B000FB68013B01229A407B685A6700BF14379D
:1059C000BD465DF8047B7047085402581C540258C9
:1059D0003054025844540258585402586C540258D7
:1059E00080540258945402583F9600164059025869
:1059F0003F8200104009024080B489B000AF786057
:105A000039600023FB61894B7B6194E13B681A6834
:105A10000121FB6901FA03F313403B613B69002B51
:105A200000F086813B685B6803F00303012B05D01F
:105A30003B685B6803F00303022B30D17B689B68F3
:105A4000BB61FB695B00032202FA03F3DB43BA6923
:105A50001340BB613B68DA68FB695B0002FA03F341
:105A6000BA691343BB617B68BA699A607B685B68FB
:105A7000BB610122FB6902FA03F3DB43BA691340FD
:105A8000BB613B685B681B0903F00102FB6902FA1A
:105A900003F3BA691343BB617B68BA695A603B6818
:105AA0005B6803F00303032B17D07B68DB68BB61E3
:105AB000FB695B00032202FA03F3DB43BA6913407C
:105AC000BB613B689A68FB695B0002FA03F3BA6941
:105AD0001343BB617B68BA69DA603B685B6803F0BB
